{
  "abi": [
    {
      "anonymous": false,
      "inputs": [
        {
          "indexed": true,
          "internalType": "address",
          "name": "previousOwner",
          "type": "address"
        },
        {
          "indexed": true,
          "internalType": "address",
          "name": "newOwner",
          "type": "address"
        }
      ],
      "name": "OwnershipTransferred",
      "type": "event"
    },
    {
      "inputs": [
        {
          "internalType": "address",
          "name": "_router",
          "type": "address"
        }
      ],
      "name": "__UniswapV3Exchange_init",
      "outputs": [],
      "stateMutability": "nonpayable",
      "type": "function"
    },
    {
      "inputs": [
        {
          "internalType": "address",
          "name": "_tokenIn",
          "type": "address"
        },
        {
          "internalType": "address",
          "name": "_via",
          "type": "address"
        },
        {
          "internalType": "address",
          "name": "_tokenOut",
          "type": "address"
        },
        {
          "internalType": "address",
          "name": "_recipient",
          "type": "address"
        },
        {
          "internalType": "uint256",
          "name": "_amountOut",
          "type": "uint256"
        },
        {
          "internalType": "uint256",
          "name": "_amountInMaximum",
          "type": "uint256"
        },
        {
          "internalType": "uint24",
          "name": "_poolFeeA",
          "type": "uint24"
        },
        {
          "internalType": "uint24",
          "name": "_poolFeeB",
          "type": "uint24"
        }
      ],
      "name": "exactOutput",
      "outputs": [
        {
          "internalType": "uint256",
          "name": "_amountIn",
          "type": "uint256"
        }
      ],
      "stateMutability": "payable",
      "type": "function"
    },
    {
      "inputs": [
        {
          "internalType": "address",
          "name": "_tokenIn",
          "type": "address"
        },
        {
          "internalType": "address",
          "name": "_tokenOut",
          "type": "address"
        },
        {
          "internalType": "address",
          "name": "_recipient",
          "type": "address"
        },
        {
          "internalType": "uint256",
          "name": "_amountOut",
          "type": "uint256"
        },
        {
          "internalType": "uint256",
          "name": "_amountInMaximum",
          "type": "uint256"
        },
        {
          "internalType": "uint24",
          "name": "_poolFee",
          "type": "uint24"
        }
      ],
      "name": "exactOutputSingle",
      "outputs": [
        {
          "internalType": "uint256",
          "name": "_amountIn",
          "type": "uint256"
        }
      ],
      "stateMutability": "payable",
      "type": "function"
    },
    {
      "inputs": [],
      "name": "owner",
      "outputs": [
        {
          "internalType": "address",
          "name": "",
          "type": "address"
        }
      ],
      "stateMutability": "view",
      "type": "function"
    },
    {
      "inputs": [],
      "name": "renounceOwnership",
      "outputs": [],
      "stateMutability": "nonpayable",
      "type": "function"
    },
    {
      "inputs": [],
      "name": "router",
      "outputs": [
        {
          "internalType": "contract ISwapRouter",
          "name": "",
          "type": "address"
        }
      ],
      "stateMutability": "view",
      "type": "function"
    },
    {
      "inputs": [
        {
          "internalType": "address",
          "name": "_tokenIn",
          "type": "address"
        },
        {
          "internalType": "address",
          "name": "_via",
          "type": "address"
        },
        {
          "internalType": "address",
          "name": "_tokenOut",
          "type": "address"
        },
        {
          "internalType": "address",
          "name": "_recipient",
          "type": "address"
        },
        {
          "internalType": "uint256",
          "name": "_amountIn",
          "type": "uint256"
        },
        {
          "internalType": "uint256",
          "name": "_amountOutMinimum",
          "type": "uint256"
        },
        {
          "internalType": "uint24",
          "name": "_poolFeeA",
          "type": "uint24"
        },
        {
          "internalType": "uint24",
          "name": "_poolFeeB",
          "type": "uint24"
        }
      ],
      "name": "swapExactInput",
      "outputs": [
        {
          "internalType": "uint256",
          "name": "",
          "type": "uint256"
        }
      ],
      "stateMutability": "payable",
      "type": "function"
    },
    {
      "inputs": [
        {
          "internalType": "address",
          "name": "_tokenIn",
          "type": "address"
        },
        {
          "internalType": "address",
          "name": "_tokenOut",
          "type": "address"
        },
        {
          "internalType": "address",
          "name": "_recipient",
          "type": "address"
        },
        {
          "internalType": "uint256",
          "name": "_amountIn",
          "type": "uint256"
        },
        {
          "internalType": "uint256",
          "name": "_amountOutMinimum",
          "type": "uint256"
        },
        {
          "internalType": "uint24",
          "name": "_poolFee",
          "type": "uint24"
        }
      ],
      "name": "swapExactInputSingle",
      "outputs": [
        {
          "internalType": "uint256",
          "name": "",
          "type": "uint256"
        }
      ],
      "stateMutability": "payable",
      "type": "function"
    },
    {
      "inputs": [
        {
          "internalType": "address",
          "name": "newOwner",
          "type": "address"
        }
      ],
      "name": "transferOwnership",
      "outputs": [],
      "stateMutability": "nonpayable",
      "type": "function"
    }
  ],
  "bytecode": {
    "object": "0x608060405234801561001057600080fd5b5061109b806100206000396000f3fe6080604052600436106100865760003560e01c80638da5cb5b116100595780638da5cb5b146100ee578063a194c84e14610120578063f2fde38b14610140578063f887ea4014610160578063fb1e26411461018057600080fd5b80630933095c1461008b5780632fa6abe9146100b15780634f091dae146100c4578063715018a6146100d7575b600080fd5b61009e610099366004610d25565b610193565b6040519081526020015b60405180910390f35b61009e6100bf366004610dad565b6102d5565b61009e6100d2366004610d25565b6103fe565b3480156100e357600080fd5b506100ec610503565b005b3480156100fa57600080fd5b506033546001600160a01b03165b6040516001600160a01b0390911681526020016100a8565b34801561012c57600080fd5b506100ec61013b366004610d0b565b61056e565b34801561014c57600080fd5b506100ec61015b366004610d0b565b61064b565b34801561016c57600080fd5b50606554610108906001600160a01b031681565b61009e61018e366004610dad565b610716565b60006101a289335b308761080c565b6065546101ba908a906001600160a01b03168661087d565b60006040518060a0016040528089868c878f6040516020016101e0959493929190610ec7565b60408051601f198184030181529181529082526001600160a01b03808b1660208401524283830152606083018a905260809092018890526065549051631e51809360e31b8152929350169063f28c04989061023f908490600401610f93565b602060405180830381600087803b15801561025957600080fd5b505af115801561026d573d6000803e3d6000fd5b505050506040513d601f19601f820116820180604052508101906102919190610e32565b9150848210156102c8576065546102b4908b906001600160a01b0316600061087d565b6102c88a336102c38589611016565b6109a6565b5098975050505050505050565b60006102e38733308661080c565b6065546102fb9088906001600160a01b03168561087d565b60408051610100810182526001600160a01b03808a168252888116602083015262ffffff851682840152878116606083015242608083015260a0820187905260c08201869052600060e08301526065549251631b67c43360e31b81529192169063db3e21989061036f908490600401610fa6565b602060405180830381600087803b15801561038957600080fd5b505af115801561039d573d6000803e3d6000fd5b505050506040513d601f19601f820116820180604052508101906103c19190610e32565b9150838210156103f3576065546103e49089906001600160a01b0316600061087d565b6103f388336102c38588611016565b509695505050505050565b600061040c8933308861080c565b606554610424908a906001600160a01b03168761087d565b6040805160a08101909152600090806104448c878d888e60c08701610ec7565b60408051601f198184030181529181529082526001600160a01b03808b1660208401524283830152606083018a90526080909201889052606554905163c04b8d5960e01b8152929350169063c04b8d59906104a3908490600401610f93565b602060405180830381600087803b1580156104bd57600080fd5b505af11580156104d1573d6000803e3d6000fd5b505050506040513d601f19601f820116820180604052508101906104f59190610e32565b9a9950505050505050505050565b6033546001600160a01b031633146105625760405162461bcd60e51b815260206004820181905260248201527f4f776e61626c653a2063616c6c6572206973206e6f7420746865206f776e657260448201526064015b60405180910390fd5b61056c60006109d6565b565b600054610100900460ff166105895760005460ff161561058d565b303b155b6105f05760405162461bcd60e51b815260206004820152602e60248201527f496e697469616c697a61626c653a20636f6e747261637420697320616c72656160448201526d191e481a5b9a5d1a585b1a5e995960921b6064820152608401610559565b600054610100900460ff16158015610612576000805461ffff19166101011790555b61061a610a28565b606580546001600160a01b0319166001600160a01b0384161790558015610647576000805461ff00191690555b5050565b6033546001600160a01b031633146106a55760405162461bcd60e51b815260206004820181905260248201527f4f776e61626c653a2063616c6c6572206973206e6f7420746865206f776e65726044820152606401610559565b6001600160a01b03811661070a5760405162461bcd60e51b815260206004820152602660248201527f4f776e61626c653a206e6577206f776e657220697320746865207a65726f206160448201526564647265737360d01b6064820152608401610559565b610713816109d6565b50565b6000610722873361019b565b60655461073a9088906001600160a01b03168661087d565b60408051610100810182526001600160a01b03808a168252888116602083015262ffffff851682840152878116606083015242608083015260a0820187905260c08201869052600060e0830152606554925163414bf38960e01b81529192169063414bf389906107ae908490600401610fa6565b602060405180830381600087803b1580156107c857600080fd5b505af11580156107dc573d6000803e3d6000fd5b505050506040513d601f19601f820116820180604052508101906108009190610e32565b98975050505050505050565b6040516001600160a01b03808516602483015283166044820152606481018290526108779085906323b872dd60e01b906084015b60408051601f198184030181529190526020810180516001600160e01b03166001600160e01b031990931692909217909152610a57565b50505050565b8015806109065750604051636eb1769f60e11b81523060048201526001600160a01b03838116602483015284169063dd62ed3e9060440160206040518083038186803b1580156108cc57600080fd5b505afa1580156108e0573d6000803e3d6000fd5b505050506040513d601f19601f820116820180604052508101906109049190610e32565b155b6109715760405162461bcd60e51b815260206004820152603660248201527f5361666545524332303a20617070726f76652066726f6d206e6f6e2d7a65726f60448201527520746f206e6f6e2d7a65726f20616c6c6f77616e636560501b6064820152608401610559565b6040516001600160a01b0383166024820152604481018290526109a190849063095ea7b360e01b90606401610840565b505050565b6040516001600160a01b0383166024820152604481018290526109a190849063a9059cbb60e01b90606401610840565b603380546001600160a01b038381166001600160a01b0319831681179093556040519116919082907f8be0079c531659141344cd1fd0a4f28419497f9722a3daafe3b4186f6b6457e090600090a35050565b600054610100900460ff16610a4f5760405162461bcd60e51b815260040161055990610f48565b61056c610b29565b6000610aac826040518060400160405280602081526020017f5361666545524332303a206c6f772d6c6576656c2063616c6c206661696c6564815250856001600160a01b0316610b599092919063ffffffff16565b8051909150156109a15780806020019051810190610aca9190610e12565b6109a15760405162461bcd60e51b815260206004820152602a60248201527f5361666545524332303a204552433230206f7065726174696f6e20646964206e6044820152691bdd081cdd58d8d9595960b21b6064820152608401610559565b600054610100900460ff16610b505760405162461bcd60e51b815260040161055990610f48565b61056c336109d6565b6060610b688484600085610b72565b90505b9392505050565b606082471015610bd35760405162461bcd60e51b815260206004820152602660248201527f416464726573733a20696e73756666696369656e742062616c616e636520666f6044820152651c8818d85b1b60d21b6064820152608401610559565b6001600160a01b0385163b610c2a5760405162461bcd60e51b815260206004820152601d60248201527f416464726573733a2063616c6c20746f206e6f6e2d636f6e74726163740000006044820152606401610559565b600080866001600160a01b03168587604051610c469190610f19565b60006040518083038185875af1925050503d8060008114610c83576040519150601f19603f3d011682016040523d82523d6000602084013e610c88565b606091505b5091509150610c98828286610ca3565b979650505050505050565b60608315610cb2575081610b6b565b825115610cc25782518084602001fd5b8160405162461bcd60e51b81526004016105599190610f35565b80356001600160a01b0381168114610cf357600080fd5b919050565b803562ffffff81168114610cf357600080fd5b600060208284031215610d1c578081fd5b610b6b82610cdc565b600080600080600080600080610100898b031215610d41578384fd5b610d4a89610cdc565b9750610d5860208a01610cdc565b9650610d6660408a01610cdc565b9550610d7460608a01610cdc565b94506080890135935060a08901359250610d9060c08a01610cf8565b9150610d9e60e08a01610cf8565b90509295985092959890939650565b60008060008060008060c08789031215610dc5578182fd5b610dce87610cdc565b9550610ddc60208801610cdc565b9450610dea60408801610cdc565b93506060870135925060808701359150610e0660a08801610cf8565b90509295509295509295565b600060208284031215610e23578081fd5b81518015158114610b6b578182fd5b600060208284031215610e43578081fd5b5051919050565b60008151808452610e62816020860160208601611039565b601f01601f19169290920160200192915050565b6000815160a08452610e8b60a0850182610e4a565b6020848101516001600160a01b031690860152604080850151908601526060808501519086015260809384015193909401929092525090919050565b6bffffffffffffffffffffffff19606096871b811682526001600160e81b031960e896871b8116601484015294871b811660178301529290941b909216602b840152921b909116602e82015260420190565b60008251610f2b818460208701611039565b9190910192915050565b602081526000610b6b6020830184610e4a565b6020808252602b908201527f496e697469616c697a61626c653a20636f6e7472616374206973206e6f74206960408201526a6e697469616c697a696e6760a81b606082015260800190565b602081526000610b6b6020830184610e76565b6101008101611010828480516001600160a01b03908116835260208083015182169084015260408083015162ffffff16908401526060808301518216908401526080808301519084015260a0828101519084015260c0808301519084015260e09182015116910152565b92915050565b60008282101561103457634e487b7160e01b81526011600452602481fd5b500390565b60005b8381101561105457818101518382015260200161103c565b83811115610877575050600091015256fea26469706673582212200a10ee5fd8fdf12862f2b8028799787ae281e91c8cbebeafd68a8738f4e9752a64736f6c63430008040033",
    "linkReferences": {}
  }
}