{
  "abi": [
    {
      "inputs": [],
      "stateMutability": "nonpayable",
      "type": "constructor"
    },
    {
      "anonymous": false,
      "inputs": [
        {
          "indexed": false,
          "internalType": "string",
          "name": "_symbol",
          "type": "string"
        },
        {
          "indexed": false,
          "internalType": "address",
          "name": "_dexAddress",
          "type": "address"
        }
      ],
      "name": "AddDexEvent",
      "type": "event"
    },
    {
      "inputs": [
        {
          "internalType": "string",
          "name": "_symbol",
          "type": "string"
        },
        {
          "internalType": "address",
          "name": "_dexAddress",
          "type": "address"
        }
      ],
      "name": "addExchange",
      "outputs": [],
      "stateMutability": "nonpayable",
      "type": "function"
    },
    {
      "inputs": [],
      "name": "admin",
      "outputs": [
        {
          "internalType": "address",
          "name": "",
          "type": "address"
        }
      ],
      "stateMutability": "view",
      "type": "function"
    },
    {
      "inputs": [
        {
          "internalType": "string",
          "name": "",
          "type": "string"
        }
      ],
      "name": "exchangeRegistryMap",
      "outputs": [
        {
          "internalType": "address",
          "name": "",
          "type": "address"
        }
      ],
      "stateMutability": "view",
      "type": "function"
    }
  ],
  "bytecode": {
    "object": "0x608060405234801561001057600080fd5b50600080546001600160a01b03191633179055610456806100326000396000f3fe608060405234801561001057600080fd5b50600436106100415760003560e01c8063031c98dc146100465780636958189814610096578063f851a440146100ab575b600080fd5b61007a6100543660046102e4565b80516020818301810180516001825292820191909301209152546001600160a01b031681565b6040516001600160a01b03909116815260200160405180910390f35b6100a96100a436600461031f565b6100be565b005b60005461007a906001600160a01b031681565b6000546001600160a01b0316331461010a5760405162461bcd60e51b815260206004820152600a60248201526927b7363c9020b236b4b760b11b60448201526064015b60405180910390fd5b6001600160a01b0381166101605760405162461bcd60e51b815260206004820152601960248201527f455852313a20496e76616c6964204445582041646472657373000000000000006044820152606401610101565b60006001600160a01b031660018360405161017b919061037a565b908152604051908190036020019020546001600160a01b0316146101e15760405162461bcd60e51b815260206004820152601860248201527f455852323a2044455820416c72656164792045786973747300000000000000006044820152606401610101565b806001836040516101f2919061037a565b90815260405190819003602001812080546001600160a01b03939093166001600160a01b0319909316929092179091557fa79203072ce56455fc02380e19e85df131da8e8b6ebb09c6db33d1d7d5750761906102519084908490610396565b60405180910390a15050565b600082601f83011261026d578081fd5b813567ffffffffffffffff808211156102885761028861040a565b604051601f8301601f19908116603f011681019082821181831017156102b0576102b061040a565b816040528381528660208588010111156102c8578485fd5b8360208701602083013792830160200193909352509392505050565b6000602082840312156102f5578081fd5b813567ffffffffffffffff81111561030b578182fd5b6103178482850161025d565b949350505050565b60008060408385031215610331578081fd5b823567ffffffffffffffff811115610347578182fd5b6103538582860161025d565b92505060208301356001600160a01b038116811461036f578182fd5b809150509250929050565b6000825161038c8184602087016103da565b9190910192915050565b60408152600083518060408401526103b58160608501602088016103da565b6001600160a01b0393909316602083015250601f91909101601f191601606001919050565b60005b838110156103f55781810151838201526020016103dd565b83811115610404576000848401525b50505050565b634e487b7160e01b600052604160045260246000fdfea2646970667358221220728f67031871a4b04cbda0a446b55fa12299e847bd0b33fd7cf0a705cf06af1764736f6c63430008040033",
    "linkReferences": {}
  }
}