{
  "abi": [
    {
      "anonymous": false,
      "inputs": [
        {
          "indexed": true,
          "internalType": "address",
          "name": "previousOwner",
          "type": "address"
        },
        {
          "indexed": true,
          "internalType": "address",
          "name": "newOwner",
          "type": "address"
        }
      ],
      "name": "OwnershipTransferred",
      "type": "event"
    },
    {
      "inputs": [],
      "name": "_sushiswapRouter",
      "outputs": [
        {
          "internalType": "contract IUniswapV2Router02",
          "name": "",
          "type": "address"
        }
      ],
      "stateMutability": "view",
      "type": "function"
    },
    {
      "inputs": [
        {
          "internalType": "address",
          "name": "router_",
          "type": "address"
        }
      ],
      "name": "initialize",
      "outputs": [],
      "stateMutability": "nonpayable",
      "type": "function"
    },
    {
      "inputs": [],
      "name": "owner",
      "outputs": [
        {
          "internalType": "address",
          "name": "",
          "type": "address"
        }
      ],
      "stateMutability": "view",
      "type": "function"
    },
    {
      "inputs": [],
      "name": "renounceOwnership",
      "outputs": [],
      "stateMutability": "nonpayable",
      "type": "function"
    },
    {
      "inputs": [
        {
          "internalType": "uint256",
          "name": "amountIn",
          "type": "uint256"
        },
        {
          "internalType": "uint256",
          "name": "amountOut",
          "type": "uint256"
        },
        {
          "internalType": "address[]",
          "name": "poolsPath",
          "type": "address[]"
        },
        {
          "internalType": "address[]",
          "name": "path",
          "type": "address[]"
        },
        {
          "internalType": "address",
          "name": "to",
          "type": "address"
        },
        {
          "internalType": "uint256",
          "name": "swapTimeout",
          "type": "uint256"
        },
        {
          "internalType": "uint160",
          "name": "loopLimit",
          "type": "uint160"
        }
      ],
      "name": "swapExactTokensForTokens",
      "outputs": [
        {
          "internalType": "uint256",
          "name": "",
          "type": "uint256"
        }
      ],
      "stateMutability": "nonpayable",
      "type": "function"
    },
    {
      "inputs": [
        {
          "internalType": "address",
          "name": "newOwner",
          "type": "address"
        }
      ],
      "name": "transferOwnership",
      "outputs": [],
      "stateMutability": "nonpayable",
      "type": "function"
    }
  ],
  "bytecode": {
    "object": "0x608060405234801561001057600080fd5b50610c57806100206000396000f3fe608060405234801561001057600080fd5b50600436106100625760003560e01c806356792ac014610067578063715018a61461008d5780638da5cb5b14610097578063c4d66de8146100bc578063f2fde38b146100cf578063f9aa2dee146100e2575b600080fd5b61007a610075366004610a47565b6100f5565b6040519081526020015b60405180910390f35b61009561063b565b005b6033546001600160a01b03165b6040516001600160a01b039091168152602001610084565b6100956100ca366004610944565b6106a6565b6100956100dd366004610944565b610783565b6065546100a4906001600160a01b031681565b60008585600081811061011857634e487b7160e01b600052603260045260246000fd5b905060200201602081019061012d9190610944565b6001600160a01b03166323b872dd336040516001600160e01b031960e084901b1681526001600160a01b039091166004820152306024820152604481018d9052606401602060405180830381600087803b15801561018a57600080fd5b505af115801561019e573d6000803e3d6000fd5b505050506040513d601f19601f820116820180604052508101906101c29190610a27565b50858560008181106101e457634e487b7160e01b600052603260045260246000fd5b90506020020160208101906101f99190610944565b60655460405163095ea7b360e01b81526001600160a01b039182166004820152602481018d905291169063095ea7b390604401602060405180830381600087803b15801561024657600080fd5b505af115801561025a573d6000803e3d6000fd5b505050506040513d601f19601f8201168201806040525081019061027e9190610a27565b5060606000878760018181106102a457634e487b7160e01b600052603260045260246000fd5b90506020020160208101906102b99190610944565b6001600160a01b031614156103db5760408051600280825260608201835290916020830190803683370190505090508686600081811061030957634e487b7160e01b600052603260045260246000fd5b905060200201602081019061031e9190610944565b8160008151811061033f57634e487b7160e01b600052603260045260246000fd5b60200260200101906001600160a01b031690816001600160a01b0316815250508686600181811061038057634e487b7160e01b600052603260045260246000fd5b90506020020160208101906103959190610944565b816001815181106103b657634e487b7160e01b600052603260045260246000fd5b60200260200101906001600160a01b031690816001600160a01b031681525050610562565b6040805160038082526080820190925290602082016060803683370190505090508686600081811061041d57634e487b7160e01b600052603260045260246000fd5b90506020020160208101906104329190610944565b8160008151811061045357634e487b7160e01b600052603260045260246000fd5b60200260200101906001600160a01b031690816001600160a01b0316815250508686600181811061049457634e487b7160e01b600052603260045260246000fd5b90506020020160208101906104a99190610944565b816001815181106104ca57634e487b7160e01b600052603260045260246000fd5b60200260200101906001600160a01b031690816001600160a01b0316815250508686600281811061050b57634e487b7160e01b600052603260045260246000fd5b90506020020160208101906105209190610944565b8160028151811061054157634e487b7160e01b600052603260045260246000fd5b60200260200101906001600160a01b031690816001600160a01b0316815250505b6065546001600160a01b03166338ed17398c8c84896105818a42610bb1565b6040518663ffffffff1660e01b81526004016105a1959493929190610b41565b600060405180830381600087803b1580156105bb57600080fd5b505af11580156105cf573d6000803e3d6000fd5b505050506040513d6000823e601f3d908101601f191682016040526105f79190810190610967565b600182516106059190610bc9565b8151811061062357634e487b7160e01b600052603260045260246000fd5b60200260200101519150509998505050505050505050565b6033546001600160a01b0316331461069a5760405162461bcd60e51b815260206004820181905260248201527f4f776e61626c653a2063616c6c6572206973206e6f7420746865206f776e657260448201526064015b60405180910390fd5b6106a4600061084e565b565b600054610100900460ff166106c15760005460ff16156106c5565b303b155b6107285760405162461bcd60e51b815260206004820152602e60248201527f496e697469616c697a61626c653a20636f6e747261637420697320616c72656160448201526d191e481a5b9a5d1a585b1a5e995960921b6064820152608401610691565b600054610100900460ff1615801561074a576000805461ffff19166101011790555b6107526108a0565b606580546001600160a01b0319166001600160a01b038416179055801561077f576000805461ff00191690555b5050565b6033546001600160a01b031633146107dd5760405162461bcd60e51b815260206004820181905260248201527f4f776e61626c653a2063616c6c6572206973206e6f7420746865206f776e65726044820152606401610691565b6001600160a01b0381166108425760405162461bcd60e51b815260206004820152602660248201527f4f776e61626c653a206e6577206f776e657220697320746865207a65726f206160448201526564647265737360d01b6064820152608401610691565b61084b8161084e565b50565b603380546001600160a01b038381166001600160a01b0319831681179093556040519116919082907f8be0079c531659141344cd1fd0a4f28419497f9722a3daafe3b4186f6b6457e090600090a35050565b600054610100900460ff166108c75760405162461bcd60e51b815260040161069190610af6565b6106a4600054610100900460ff166108f15760405162461bcd60e51b815260040161069190610af6565b6106a43361084e565b60008083601f84011261090b578081fd5b50813567ffffffffffffffff811115610922578182fd5b6020830191508360208260051b850101111561093d57600080fd5b9250929050565b600060208284031215610955578081fd5b813561096081610c0c565b9392505050565b60006020808385031215610979578182fd5b825167ffffffffffffffff80821115610990578384fd5b818501915085601f8301126109a3578384fd5b8151818111156109b5576109b5610bf6565b8060051b604051601f19603f830116810181811085821117156109da576109da610bf6565b604052828152858101935084860182860187018a10156109f8578788fd5b8795505b83861015610a1a5780518552600195909501949386019386016109fc565b5098975050505050505050565b600060208284031215610a38578081fd5b81518015158114610960578182fd5b600080600080600080600080600060e08a8c031215610a64578485fd5b8935985060208a0135975060408a013567ffffffffffffffff80821115610a89578687fd5b610a958d838e016108fa565b909950975060608c0135915080821115610aad578687fd5b50610aba8c828d016108fa565b90965094505060808a0135610ace81610c0c565b925060a08a0135915060c08a0135610ae581610c0c565b809150509295985092959850929598565b6020808252602b908201527f496e697469616c697a61626c653a20636f6e7472616374206973206e6f74206960408201526a6e697469616c697a696e6760a81b606082015260800190565b600060a082018783526020878185015260a0604085015281875180845260c0860191508289019350845b81811015610b905784516001600160a01b031683529383019391830191600101610b6b565b50506001600160a01b03969096166060850152505050608001529392505050565b60008219821115610bc457610bc4610be0565b500190565b600082821015610bdb57610bdb610be0565b500390565b634e487b7160e01b600052601160045260246000fd5b634e487b7160e01b600052604160045260246000fd5b6001600160a01b038116811461084b57600080fdfea264697066735822122097a2be4b251f7f63abf40ae6f708e9a44198a35e661c2f1a5ea54ea78969f1b564736f6c63430008040033",
    "linkReferences": {}
  }
}