{
  "abi": [
    {
      "inputs": [
        {
          "internalType": "address",
          "name": "_aavePoolProvider",
          "type": "address"
        },
        {
          "internalType": "address",
          "name": "_treassury",
          "type": "address"
        }
      ],
      "stateMutability": "nonpayable",
      "type": "constructor"
    },
    {
      "stateMutability": "payable",
      "type": "fallback"
    },
    {
      "inputs": [
        {
          "internalType": "string",
          "name": "",
          "type": "string"
        }
      ],
      "name": "_dexRouters",
      "outputs": [
        {
          "internalType": "address",
          "name": "",
          "type": "address"
        }
      ],
      "stateMutability": "view",
      "type": "function"
    },
    {
      "inputs": [
        {
          "internalType": "uint256",
          "name": "",
          "type": "uint256"
        }
      ],
      "name": "_trades",
      "outputs": [
        {
          "internalType": "string",
          "name": "_dexSymbol",
          "type": "string"
        },
        {
          "internalType": "address",
          "name": "_assetToApprove",
          "type": "address"
        },
        {
          "internalType": "uint256",
          "name": "_amountExpectedOut",
          "type": "uint256"
        }
      ],
      "stateMutability": "view",
      "type": "function"
    },
    {
      "inputs": [],
      "name": "aavePool",
      "outputs": [
        {
          "internalType": "contract IPool",
          "name": "",
          "type": "address"
        }
      ],
      "stateMutability": "view",
      "type": "function"
    },
    {
      "inputs": [],
      "name": "aavePoolProvider",
      "outputs": [
        {
          "internalType": "contract IPoolAddressesProvider",
          "name": "",
          "type": "address"
        }
      ],
      "stateMutability": "view",
      "type": "function"
    },
    {
      "inputs": [
        {
          "internalType": "string",
          "name": "_dexSymbol",
          "type": "string"
        },
        {
          "internalType": "address",
          "name": "_dexRouter",
          "type": "address"
        }
      ],
      "name": "addDexRouter",
      "outputs": [],
      "stateMutability": "nonpayable",
      "type": "function"
    },
    {
      "inputs": [],
      "name": "deposit",
      "outputs": [
        {
          "internalType": "uint256",
          "name": "",
          "type": "uint256"
        }
      ],
      "stateMutability": "payable",
      "type": "function"
    },
    {
      "inputs": [
        {
          "internalType": "address",
          "name": "_asset",
          "type": "address"
        },
        {
          "internalType": "uint256",
          "name": "_amount",
          "type": "uint256"
        },
        {
          "internalType": "uint256",
          "name": "_premium",
          "type": "uint256"
        },
        {
          "internalType": "address",
          "name": "_initiator",
          "type": "address"
        },
        {
          "internalType": "bytes",
          "name": "_operations",
          "type": "bytes"
        }
      ],
      "name": "executeOperation",
      "outputs": [
        {
          "internalType": "bool",
          "name": "",
          "type": "bool"
        }
      ],
      "stateMutability": "nonpayable",
      "type": "function"
    },
    {
      "inputs": [],
      "name": "owner",
      "outputs": [
        {
          "internalType": "address",
          "name": "",
          "type": "address"
        }
      ],
      "stateMutability": "view",
      "type": "function"
    },
    {
      "inputs": [
        {
          "internalType": "address",
          "name": "_asset",
          "type": "address"
        },
        {
          "internalType": "uint256",
          "name": "_amount",
          "type": "uint256"
        },
        {
          "internalType": "bytes",
          "name": "_operations",
          "type": "bytes"
        }
      ],
      "name": "performStrategy",
      "outputs": [],
      "stateMutability": "nonpayable",
      "type": "function"
    },
    {
      "inputs": [
        {
          "internalType": "uint256",
          "name": "_index",
          "type": "uint256"
        },
        {
          "components": [
            {
              "internalType": "string",
              "name": "_dexSymbol",
              "type": "string"
            },
            {
              "internalType": "address",
              "name": "_assetToApprove",
              "type": "address"
            },
            {
              "internalType": "uint256",
              "name": "_amountExpectedOut",
              "type": "uint256"
            }
          ],
          "internalType": "struct ArbiTrader.Trade",
          "name": "_trade",
          "type": "tuple"
        }
      ],
      "name": "setTrades",
      "outputs": [],
      "stateMutability": "nonpayable",
      "type": "function"
    },
    {
      "inputs": [],
      "name": "treassury",
      "outputs": [
        {
          "internalType": "address",
          "name": "",
          "type": "address"
        }
      ],
      "stateMutability": "view",
      "type": "function"
    },
    {
      "stateMutability": "payable",
      "type": "receive"
    }
  ],
  "bytecode": {
    "object": "0x60806040523480156200001157600080fd5b50604051620012e3380380620012e383398101604081905262000034916200014d565b60028054336001600160a01b0319918216179091556003805482166001600160a01b0384811691909117909155600080549092169084169081179091556040805163026b1d5f60e01b8152905163026b1d5f91600480820192602092909190829003018186803b158015620000a857600080fd5b505afa158015620000bd573d6000803e3d6000fd5b505050506040513d601f19601f82011682018060405250810190620000e3919062000129565b600180546001600160a01b0319166001600160a01b039290921691909117905550620001849050565b80516001600160a01b03811681146200012457600080fd5b919050565b6000602082840312156200013b578081fd5b62000146826200010c565b9392505050565b6000806040838503121562000160578081fd5b6200016b836200010c565b91506200017b602084016200010c565b90509250929050565b61114f80620001946000396000f3fe6080604052600436106100a05760003560e01c80638da5cb5b116100645780638da5cb5b1461019f578063a03e4bc3146101bf578063a28a625f146101df578063afdf0add1461020e578063bad7d8011461022e578063d0e30db01461024e57600080fd5b806317c1e379146100af5780631b11d0ff146100ec578063359804e31461011c5780634996e87d1461013e5780636e0c0dc91461015e57600080fd5b366100aa57600080fd5b600080fd5b3480156100bb57600080fd5b506000546100cf906001600160a01b031681565b6040516001600160a01b0390911681526020015b60405180910390f35b3480156100f857600080fd5b5061010c610107366004610bbb565b610264565b60405190151581526020016100e3565b34801561012857600080fd5b5061013c610137366004610da9565b610702565b005b34801561014a57600080fd5b506003546100cf906001600160a01b031681565b34801561016a57600080fd5b506100cf610179366004610c58565b80516020818301810180516004825292820191909301209152546001600160a01b031681565b3480156101ab57600080fd5b506002546100cf906001600160a01b031681565b3480156101cb57600080fd5b506001546100cf906001600160a01b031681565b3480156101eb57600080fd5b506101ff6101fa366004610d79565b61075e565b6040516100e393929190610fa3565b34801561021a57600080fd5b5061013c610229366004610b63565b610812565b34801561023a57600080fd5b5061013c610249366004610d06565b6108cc565b610256610910565b6040519081526020016100e3565b6040516370a0823160e01b815230600482015260009086906001600160a01b038916906370a082319060240160206040518083038186803b1580156102a857600080fd5b505afa1580156102bc573d6000803e3d6000fd5b505050506040513d601f19601f820116820180604052508101906102e09190610d91565b101561032c5760405162461bcd60e51b815260206004820152601660248201527510550c48131bd85b88151c985b9cd9995c8811985a5b60521b60448201526064015b60405180910390fd5b61036260405180604001604052806015815260200174032bc32b1baba32a7b832b930ba34b7b7101d1d1d1605d1b815250610966565b60008267ffffffffffffffff81111561038b57634e487b7160e01b600052604160045260246000fd5b6040519080825280602002602001820160405280156103be57816020015b60608152602001906001900390816103a95790505b50905060005b838110156105da5760008181526005602052604080822090516004916103e991610e97565b9081526040805160209281900383018120546000868152600590945291909220600181015460029091015463095ea7b360e01b84526001600160a01b039283166004850181905260248501919091529350169063095ea7b390604401602060405180830381600087803b15801561045f57600080fd5b505af1158015610473573d6000803e3d6000fd5b505050506040513d601f19601f820116820180604052508101906104979190610c31565b50600080826001600160a01b03168888868181106104c557634e487b7160e01b600052603260045260246000fd5b6040805191909301356001600160f81b0319166020820152909101905060408051601f19818403018152908290526104fc91610e7b565b600060405180830381855af49150503d8060008114610537576040519150601f19603f3d011682016040523d82523d6000602084013e61053c565b606091505b5091509150816105845760405162461bcd60e51b815260206004820152601360248201527219195b1959d85d1958d85b1b0819985a5b1959606a1b6044820152606401610323565b60008180602001905181019061059a9190610c93565b90506105c360405180604001604052806005815260200164036b9b39d160dd1b815250826109ac565b5050505080806105d2906110d2565b9150506103c4565b506001546040805163354ce01b60e11b815290516001600160a01b03808c169363095ea7b3939116918291636a99c036916004808301926020929190829003018186803b15801561062a57600080fd5b505afa15801561063e573d6000803e3d6000fd5b505050506040513d601f19601f820116820180604052508101906106629190610d52565b610675906001600160801b03168b61104f565b6040516001600160e01b031960e085901b1681526001600160a01b0390921660048301526024820152604401602060405180830381600087803b1580156106bb57600080fd5b505af11580156106cf573d6000803e3d6000fd5b505050506040513d601f19601f820116820180604052508101906106f39190610c31565b50600198975050505050505050565b6000828152600560209081526040909120825180518493610727928492910190610a16565b5060208201516001820180546001600160a01b0319166001600160a01b039092169190911790556040909101516002909101555050565b60056020526000908152604090208054819061077990611097565b80601f01602080910402602001604051908101604052809291908181526020018280546107a590611097565b80156107f25780601f106107c7576101008083540402835291602001916107f2565b820191906000526020600020905b8154815290600101906020018083116107d557829003601f168201915b50505050600183015460029093015491926001600160a01b031691905083565b6002546001600160a01b031633146108595760405162461bcd60e51b815260206004820152600a60248201526927b7363c9027bbb732b960b11b6044820152606401610323565b6001546040516310ac2ddf60e21b81526001600160a01b03909116906342b0b77c906108949030908890889088908890600090600401610f32565b600060405180830381600087803b1580156108ae57600080fd5b505af11580156108c2573d6000803e3d6000fd5b5050505050505050565b806004836040516108dd9190610e7b565b90815260405190819003602001902080546001600160a01b03929092166001600160a01b03199092169190911790555050565b60008034116109615760405162461bcd60e51b815260206004820152601b60248201527f47617320636f73747320617265206869676820636f6d65206f6e2100000000006044820152606401610323565b504790565b6109a98160405160240161097a9190610f90565b60408051601f198184030181529190526020810180516001600160e01b031663104c13eb60e21b1790526109f5565b50565b6109f182826040516024016109c2929190610fd1565b60408051601f198184030181529190526020810180516001600160e01b0316634b5c427760e01b1790526109f5565b5050565b80516a636f6e736f6c652e6c6f67602083016000808483855afa5050505050565b828054610a2290611097565b90600052602060002090601f016020900481019282610a445760008555610a8a565b82601f10610a5d57805160ff1916838001178555610a8a565b82800160010185558215610a8a579182015b82811115610a8a578251825591602001919060010190610a6f565b50610a96929150610a9a565b5090565b5b80821115610a965760008155600101610a9b565b80356001600160a01b0381168114610ac657600080fd5b919050565b60008083601f840112610adc578182fd5b50813567ffffffffffffffff811115610af3578182fd5b602083019150836020828501011115610b0b57600080fd5b9250929050565b600082601f830112610b22578081fd5b8135610b35610b3082611027565b610ff6565b818152846020838601011115610b49578283fd5b816020850160208301379081016020019190915292915050565b60008060008060608587031215610b78578384fd5b610b8185610aaf565b935060208501359250604085013567ffffffffffffffff811115610ba3578283fd5b610baf87828801610acb565b95989497509550505050565b60008060008060008060a08789031215610bd3578182fd5b610bdc87610aaf565b95506020870135945060408701359350610bf860608801610aaf565b9250608087013567ffffffffffffffff811115610c13578283fd5b610c1f89828a01610acb565b979a9699509497509295939492505050565b600060208284031215610c42578081fd5b81518015158114610c51578182fd5b9392505050565b600060208284031215610c69578081fd5b813567ffffffffffffffff811115610c7f578182fd5b610c8b84828501610b12565b949350505050565b600060208284031215610ca4578081fd5b815167ffffffffffffffff811115610cba578182fd5b8201601f81018413610cca578182fd5b8051610cd8610b3082611027565b818152856020838501011115610cec578384fd5b610cfd826020830160208601611067565b95945050505050565b60008060408385031215610d18578182fd5b823567ffffffffffffffff811115610d2e578283fd5b610d3a85828601610b12565b925050610d4960208401610aaf565b90509250929050565b600060208284031215610d63578081fd5b81516001600160801b0381168114610c51578182fd5b600060208284031215610d8a578081fd5b5035919050565b600060208284031215610da2578081fd5b5051919050565b60008060408385031215610dbb578182fd5b82359150602083013567ffffffffffffffff80821115610dd9578283fd5b9084019060608287031215610dec578283fd5b604051606081018181108382111715610e0757610e07611103565b604052823582811115610e18578485fd5b610e2488828601610b12565b825250610e3360208401610aaf565b6020820152604083013560408201528093505050509250929050565b60008151808452610e67816020860160208601611067565b601f01601f19169290920160200192915050565b60008251610e8d818460208701611067565b9190910192915050565b600080835482600182811c915080831680610eb357607f831692505b6020808410821415610ed357634e487b7160e01b87526022600452602487fd5b818015610ee75760018114610ef857610f24565b60ff19861689528489019650610f24565b60008a815260209020885b86811015610f1c5781548b820152908501908301610f03565b505084890196505b509498975050505050505050565b6001600160a01b038781168252861660208201526040810185905260a06060820181905281018390526000838560c08401378060c0858401015260c0601f19601f860116830101905061ffff83166080830152979650505050505050565b602081526000610c516020830184610e4f565b606081526000610fb66060830186610e4f565b6001600160a01b039490941660208301525060400152919050565b604081526000610fe46040830185610e4f565b8281036020840152610cfd8185610e4f565b604051601f8201601f1916810167ffffffffffffffff8111828210171561101f5761101f611103565b604052919050565b600067ffffffffffffffff82111561104157611041611103565b50601f01601f191660200190565b60008219821115611062576110626110ed565b500190565b60005b8381101561108257818101518382015260200161106a565b83811115611091576000848401525b50505050565b600181811c908216806110ab57607f821691505b602082108114156110cc57634e487b7160e01b600052602260045260246000fd5b50919050565b60006000198214156110e6576110e66110ed565b5060010190565b634e487b7160e01b600052601160045260246000fd5b634e487b7160e01b600052604160045260246000fdfea2646970667358221220595cb3cc45497e293c10c2c8c617a939f5020996dfe25b88eebdd313533e124664736f6c63430008040033",
    "linkReferences": {}
  }
}