{
  "abi": [
    {
      "inputs": [
        {
          "internalType": "address",
          "name": "_aavePoolProvider",
          "type": "address"
        },
        {
          "internalType": "address",
          "name": "_treassury",
          "type": "address"
        }
      ],
      "stateMutability": "nonpayable",
      "type": "constructor"
    },
    {
      "stateMutability": "payable",
      "type": "fallback"
    },
    {
      "inputs": [
        {
          "internalType": "string",
          "name": "",
          "type": "string"
        }
      ],
      "name": "_uniForkDexes",
      "outputs": [
        {
          "internalType": "address",
          "name": "",
          "type": "address"
        }
      ],
      "stateMutability": "view",
      "type": "function"
    },
    {
      "inputs": [],
      "name": "aavePool",
      "outputs": [
        {
          "internalType": "contract IPool",
          "name": "",
          "type": "address"
        }
      ],
      "stateMutability": "view",
      "type": "function"
    },
    {
      "inputs": [],
      "name": "aavePoolProvider",
      "outputs": [
        {
          "internalType": "contract IPoolAddressesProvider",
          "name": "",
          "type": "address"
        }
      ],
      "stateMutability": "view",
      "type": "function"
    },
    {
      "inputs": [
        {
          "internalType": "string",
          "name": "_dexTicker",
          "type": "string"
        },
        {
          "internalType": "address",
          "name": "_dexRouter",
          "type": "address"
        }
      ],
      "name": "addUniForkDex",
      "outputs": [],
      "stateMutability": "nonpayable",
      "type": "function"
    },
    {
      "inputs": [],
      "name": "deposit",
      "outputs": [
        {
          "internalType": "uint256",
          "name": "",
          "type": "uint256"
        }
      ],
      "stateMutability": "payable",
      "type": "function"
    },
    {
      "inputs": [
        {
          "internalType": "address",
          "name": "_asset",
          "type": "address"
        },
        {
          "internalType": "uint256",
          "name": "_amount",
          "type": "uint256"
        },
        {
          "internalType": "uint256",
          "name": "_premium",
          "type": "uint256"
        },
        {
          "internalType": "address",
          "name": "_initiator",
          "type": "address"
        },
        {
          "internalType": "bytes",
          "name": "_operations",
          "type": "bytes"
        }
      ],
      "name": "executeOperation",
      "outputs": [
        {
          "internalType": "bool",
          "name": "",
          "type": "bool"
        }
      ],
      "stateMutability": "nonpayable",
      "type": "function"
    },
    {
      "inputs": [],
      "name": "owner",
      "outputs": [
        {
          "internalType": "address",
          "name": "",
          "type": "address"
        }
      ],
      "stateMutability": "view",
      "type": "function"
    },
    {
      "inputs": [
        {
          "internalType": "address",
          "name": "_asset",
          "type": "address"
        },
        {
          "internalType": "uint256",
          "name": "_amount",
          "type": "uint256"
        },
        {
          "internalType": "bytes",
          "name": "_operations",
          "type": "bytes"
        }
      ],
      "name": "performStrategy",
      "outputs": [],
      "stateMutability": "nonpayable",
      "type": "function"
    },
    {
      "inputs": [],
      "name": "treassury",
      "outputs": [
        {
          "internalType": "address",
          "name": "",
          "type": "address"
        }
      ],
      "stateMutability": "view",
      "type": "function"
    },
    {
      "stateMutability": "payable",
      "type": "receive"
    }
  ],
  "bytecode": {
    "object": "0x60806040523480156200001157600080fd5b5060405162001b7538038062001b7583398101604081905262000034916200014d565b60016000819055600480546001600160a01b031990811633178255600580546001600160a01b03868116918416919091179091558354908616911681179092556040805163026b1d5f60e01b8152905163026b1d5f92828101926020929190829003018186803b158015620000a857600080fd5b505afa158015620000bd573d6000803e3d6000fd5b505050506040513d601f19601f82011682018060405250810190620000e3919062000129565b600280546001600160a01b0319166001600160a01b039290921691909117905550620001849050565b80516001600160a01b03811681146200012457600080fd5b919050565b6000602082840312156200013b578081fd5b62000146826200010c565b9392505050565b6000806040838503121562000160578081fd5b6200016b836200010c565b91506200017b602084016200010c565b90509250929050565b6119e180620001946000396000f3fe6080604052600436106100845760003560e01c8063a03e4bc311610056578063a03e4bc31461013a578063a79031901461015a578063afdf0add1461017a578063d0e30db01461019a578063fd5e2289146101b057005b806317c1e3791461008d5780631b11d0ff146100ca5780634996e87d146100fa5780638da5cb5b1461011a57005b3661008b57005b005b34801561009957600080fd5b506001546100ad906001600160a01b031681565b6040516001600160a01b0390911681526020015b60405180910390f35b3480156100d657600080fd5b506100ea6100e536600461139c565b6101f1565b60405190151581526020016100c1565b34801561010657600080fd5b506005546100ad906001600160a01b031681565b34801561012657600080fd5b506004546100ad906001600160a01b031681565b34801561014657600080fd5b506002546100ad906001600160a01b031681565b34801561016657600080fd5b5061008b61017536600461157a565b610591565b34801561018657600080fd5b5061008b610195366004611344565b6105d5565b6101a26105e7565b6040519081526020016100c1565b3480156101bc57600080fd5b506100ad6101cb3660046114cc565b80516020818301810180516003825292820191909301209152546001600160a01b031681565b60006102336040518060400160405280601881526020017f545241444552204c4f414e2042414c414e4345203a3a3a200000000000000000815250883061063d565b6040516370a0823160e01b815230600482015286906001600160a01b038916906370a082319060240160206040518083038186803b15801561027457600080fd5b505afa158015610288573d6000803e3d6000fd5b505050506040513d601f19601f820116820180604052508101906102ac9190611695565b10156102f85760405162461bcd60e51b815260206004820152601660248201527510550c48131bd85b88151c985b9cd9995c8811985a5b60521b60448201526064015b60405180910390fd5b610303878484610757565b6002546040805163354ce01b60e11b815290516000926001600160a01b031691636a99c036916004808301926020929190829003018186803b15801561034857600080fd5b505afa15801561035c573d6000803e3d6000fd5b505050506040513d601f19601f82011682018060405250810190610380919061166e565b610393906001600160801b031688611924565b90506103cc604051806040016040528060158152602001742932b830bcb4b733903a3432903637b0b7101d1d1d60591b8152508261102c565b61040c6040518060400160405280601e81526020017f5472616465722062616c616e6365206166746572207265706179203a3a3a0000815250893061063d565b60025460405163095ea7b360e01b81526001600160a01b039182166004820152602481018390529089169063095ea7b390604401602060405180830381600087803b15801561045a57600080fd5b505af115801561046e573d6000803e3d6000fd5b505050506040513d601f19601f8201168201806040525081019061049291906114a5565b506040516370a0823160e01b81523060048201526000906001600160a01b038a16906370a082319060240160206040518083038186803b1580156104d557600080fd5b505afa1580156104e9573d6000803e3d6000fd5b505050506040513d601f19601f8201168201806040525081019061050d9190611695565b9050818111156105515760408051808201909152600b81526a0282927a324aa101d1d1d160ad1b602082015261054c90610547848461193c565b61102c565b610582565b60408051808201909152600c81526b026a4a9a9a4a723901d1d1d160a51b602082015261058290610547838561193c565b50600198975050505050505050565b806003836040516105a2919061171c565b90815260405190819003602001902080546001600160a01b03929092166001600160a01b03199092169190911790555050565b6105e184848484611075565b50505050565b60008034116106385760405162461bcd60e51b815260206004820152601b60248201527f47617320636f73747320617265206869676820636f6d65206f6e21000000000060448201526064016102ef565b504790565b61075283836001600160a01b03166395d89b416040518163ffffffff1660e01b8152600401600060405180830381600087803b15801561067c57600080fd5b505af1158015610690573d6000803e3d6000fd5b505050506040513d6000823e601f3d908101601f191682016040526106b89190810190611507565b60408051808201825260078152661034b9901d1d1d60c91b602082015290516370a0823160e01b81526001600160a01b0386811660048301528716906370a082319060240160206040518083038186803b15801561071557600080fd5b505afa158015610729573d6000803e3d6000fd5b505050506040513d601f19601f8201168201806040525081019061074d9190611695565b61112f565b505050565b60408051808201909152600c81526b037b832b930ba34b7b7399d160a51b6020820152610784908261102c565b6000808080610795858701876115c6565b93509350935093506107cc6040518060400160405280600d81526020016c2fb232bc29bcb6b137b62f989d60991b81525085611178565b61081f6040518060400160405280600981526020016802fb830ba342f989d160bd1b8152508460008151811061081257634e487b7160e01b600052603260045260246000fd5b60200260200101516111bd565b6000600385604051610831919061171c565b9081526040519081900360200190205484516001600160a01b039091169150849060009061086f57634e487b7160e01b600052603260045260246000fd5b60200260200101516001600160a01b0316886001600160a01b0316146108e65760405162461bcd60e51b815260206004820152602660248201527f6c6f616e20617373657420646966662066726f6d206669727374207377617020604482015265746f6b656e4160d01b60648201526084016102ef565b6040516370a0823160e01b81523060048201526000906001600160a01b038a16906370a082319060240160206040518083038186803b15801561092857600080fd5b505afa15801561093c573d6000803e3d6000fd5b505050506040513d601f19601f820116820180604052508101906109609190611695565b90506000826001600160a01b031663d06ca61f83886040518363ffffffff1660e01b8152600401610992929190611852565b60006040518083038186803b1580156109aa57600080fd5b505afa1580156109be573d6000803e3d6000fd5b505050506040513d6000823e601f3d908101601f191682016040526109e69190810190611412565b600187516109f4919061193c565b81518110610a1257634e487b7160e01b600052603260045260246000fd5b602090810291909101015160405163095ea7b360e01b81526001600160a01b03858116600483015260248201859052919250908b169063095ea7b390604401602060405180830381600087803b158015610a6b57600080fd5b505af1158015610a7f573d6000803e3d6000fd5b505050506040513d601f19601f82011682018060405250810190610aa391906114a5565b50610ad36040518060400160405280600d81526020016c02fb0b6b7bab73a24b72f989d1609d1b8152508361102c565b610b036040518060400160405280600e81526020016d02fb0b6b7bab73a27baba2f989d160951b8152508261102c565b6040516338ed173960e01b81526000906001600160a01b038516906338ed173990610b3a90869086908c903090429060040161186b565b600060405180830381600087803b158015610b5457600080fd5b505af1158015610b68573d6000803e3d6000fd5b505050506040513d6000823e601f3d908101601f19168201604052610b909190810190611412565b60018851610b9e919061193c565b81518110610bbc57634e487b7160e01b600052603260045260246000fd5b60200260200101519050610bf66040518060400160405280600e81526020016d039bbb0b82932b9bab63a2f989d160951b8152508261102c565b60008111610c365760405162461bcd60e51b815260206004820152600d60248201526c39bbb0b818903330b4b632b21760991b60448201526064016102ef565b808760018951610c46919061193c565b81518110610c6457634e487b7160e01b600052603260045260246000fd5b60209081029190910101516040516370a0823160e01b81523060048201526001600160a01b03909116906370a082319060240160206040518083038186803b158015610caf57600080fd5b505afa158015610cc3573d6000803e3d6000fd5b505050506040513d601f19601f82011682018060405250810190610ce79190611695565b1061101f576000600387604051610cfe919061171c565b9081526040519081900360200190205486516001600160a01b0390911691508690600090610d3c57634e487b7160e01b600052603260045260246000fd5b602090810291909101015160405163095ea7b360e01b81526001600160a01b038381166004830152602482018790529091169063095ea7b390604401602060405180830381600087803b158015610d9257600080fd5b505af1158015610da6573d6000803e3d6000fd5b505050506040513d601f19601f82011682018060405250810190610dca91906114a5565b5060405163d06ca61f60e01b815282906000906001600160a01b0384169063d06ca61f90610dfe9085908c90600401611852565b60006040518083038186803b158015610e1657600080fd5b505afa158015610e2a573d6000803e3d6000fd5b505050506040513d6000823e601f3d908101601f19168201604052610e529190810190611412565b60018951610e60919061193c565b81518110610e7e57634e487b7160e01b600052603260045260246000fd5b60200260200101519050610eb76040518060400160405280600d81526020016c02fb0b6b7bab73a24b72f991d1609d1b8152508561102c565b610ee76040518060400160405280600e81526020016d02fb0b6b7bab73a27baba2f991d160951b8152508261102c565b6040516338ed173960e01b81526000906001600160a01b038516906338ed173990610f1e90869086908e903090429060040161186b565b600060405180830381600087803b158015610f3857600080fd5b505af1158015610f4c573d6000803e3d6000fd5b505050506040513d6000823e601f3d908101601f19168201604052610f749190810190611412565b60018a51610f82919061193c565b81518110610fa057634e487b7160e01b600052603260045260246000fd5b60200260200101519050610fda6040518060400160405280600e81526020016d039bbb0b82932b9bab63a2f991d160951b8152508261102c565b6000811161101a5760405162461bcd60e51b815260206004820152600d60248201526c39bbb0b819103330b4b632b21760991b60448201526064016102ef565b505050505b5050505050505050505050565b6110718282604051602401611042929190611830565b60408051601f198184030181529190526020810180516001600160e01b03166309710a9d60e41b1790526111fe565b5050565b6004546001600160a01b031633146110bc5760405162461bcd60e51b815260206004820152600a60248201526927b7363c9027bbb732b960b11b60448201526064016102ef565b6002546040516310ac2ddf60e21b81526001600160a01b03909116906342b0b77c906110f79030908890889088908890600090600401611738565b600060405180830381600087803b15801561111157600080fd5b505af1158015611125573d6000803e3d6000fd5b5050505050505050565b6105e18484848460405160240161114994939291906117e5565b60408051601f198184030181529190526020810180516001600160e01b0316639fd009f560e01b1790526111fe565b611071828260405160240161118e9291906117c0565b60408051601f198184030181529190526020810180516001600160e01b0316634b5c427760e01b1790526111fe565b61107182826040516024016111d3929190611796565b60408051601f198184030181529190526020810180516001600160e01b031663319af33360e01b1790525b80516a636f6e736f6c652e6c6f67602083016000808483855afa5050505050565b80356001600160a01b038116811461123657600080fd5b919050565b600082601f83011261124b578081fd5b8135602061126061125b836118d8565b6118a7565b80838252828201915082860187848660051b890101111561127f578586fd5b855b858110156112a4576112928261121f565b84529284019290840190600101611281565b5090979650505050505050565b60008083601f8401126112c2578182fd5b50813567ffffffffffffffff8111156112d9578182fd5b6020830191508360208285010111156112f157600080fd5b9250929050565b600082601f830112611308578081fd5b813561131661125b826118fc565b81815284602083860101111561132a578283fd5b816020850160208301379081016020019190915292915050565b60008060008060608587031215611359578384fd5b6113628561121f565b935060208501359250604085013567ffffffffffffffff811115611384578283fd5b611390878288016112b1565b95989497509550505050565b60008060008060008060a087890312156113b4578182fd5b6113bd8761121f565b955060208701359450604087013593506113d96060880161121f565b9250608087013567ffffffffffffffff8111156113f4578283fd5b61140089828a016112b1565b979a9699509497509295939492505050565b60006020808385031215611424578182fd5b825167ffffffffffffffff81111561143a578283fd5b8301601f8101851361144a578283fd5b805161145861125b826118d8565b80828252848201915084840188868560051b8701011115611477578687fd5b8694505b8385101561149957805183526001949094019391850191850161147b565b50979650505050505050565b6000602082840312156114b6578081fd5b815180151581146114c5578182fd5b9392505050565b6000602082840312156114dd578081fd5b813567ffffffffffffffff8111156114f3578182fd5b6114ff848285016112f8565b949350505050565b600060208284031215611518578081fd5b815167ffffffffffffffff81111561152e578182fd5b8201601f8101841361153e578182fd5b805161154c61125b826118fc565b818152856020838501011115611560578384fd5b611571826020830160208601611953565b95945050505050565b6000806040838503121561158c578182fd5b823567ffffffffffffffff8111156115a2578283fd5b6115ae858286016112f8565b9250506115bd6020840161121f565b90509250929050565b600080600080608085870312156115db578384fd5b843567ffffffffffffffff808211156115f2578586fd5b6115fe888389016112f8565b95506020870135915080821115611613578485fd5b61161f8883890161123b565b94506040870135915080821115611634578384fd5b611640888389016112f8565b93506060870135915080821115611655578283fd5b506116628782880161123b565b91505092959194509250565b60006020828403121561167f578081fd5b81516001600160801b03811681146114c5578182fd5b6000602082840312156116a6578081fd5b5051919050565b6000815180845260208085019450808401835b838110156116e55781516001600160a01b0316875295820195908201906001016116c0565b509495945050505050565b60008151808452611708816020860160208601611953565b601f01601f19169290920160200192915050565b6000825161172e818460208701611953565b9190910192915050565b6001600160a01b038781168252861660208201526040810185905260a06060820181905281018390526000838560c08401378060c0858401015260c0601f19601f860116830101905061ffff83166080830152979650505050505050565b6040815260006117a960408301856116f0565b905060018060a01b03831660208301529392505050565b6040815260006117d360408301856116f0565b828103602084015261157181856116f0565b6080815260006117f860808301876116f0565b828103602084015261180a81876116f0565b9050828103604084015261181e81866116f0565b91505082606083015295945050505050565b60408152600061184360408301856116f0565b90508260208301529392505050565b8281526040602082015260006114ff60408301846116ad565b85815284602082015260a06040820152600061188a60a08301866116ad565b6001600160a01b0394909416606083015250608001529392505050565b604051601f8201601f1916810167ffffffffffffffff811182821017156118d0576118d0611995565b604052919050565b600067ffffffffffffffff8211156118f2576118f2611995565b5060051b60200190565b600067ffffffffffffffff82111561191657611916611995565b50601f01601f191660200190565b600082198211156119375761193761197f565b500190565b60008282101561194e5761194e61197f565b500390565b60005b8381101561196e578181015183820152602001611956565b838111156105e15750506000910152565b634e487b7160e01b600052601160045260246000fd5b634e487b7160e01b600052604160045260246000fdfea26469706673582212208ab1b31acd69d6b93422c04f5e313c09b1e11eb3eee62b125825fb50a5afc60b64736f6c63430008040033",
    "linkReferences": {}
  }
}