{
  "abi": [
    {
      "anonymous": false,
      "inputs": [
        {
          "indexed": true,
          "internalType": "address",
          "name": "previousOwner",
          "type": "address"
        },
        {
          "indexed": true,
          "internalType": "address",
          "name": "newOwner",
          "type": "address"
        }
      ],
      "name": "OwnershipTransferred",
      "type": "event"
    },
    {
      "inputs": [],
      "name": "_uniswapRouter",
      "outputs": [
        {
          "internalType": "contract IUniswapV2Router02",
          "name": "",
          "type": "address"
        }
      ],
      "stateMutability": "view",
      "type": "function"
    },
    {
      "inputs": [
        {
          "internalType": "address",
          "name": "router_",
          "type": "address"
        }
      ],
      "name": "initialize",
      "outputs": [],
      "stateMutability": "nonpayable",
      "type": "function"
    },
    {
      "inputs": [],
      "name": "owner",
      "outputs": [
        {
          "internalType": "address",
          "name": "",
          "type": "address"
        }
      ],
      "stateMutability": "view",
      "type": "function"
    },
    {
      "inputs": [],
      "name": "renounceOwnership",
      "outputs": [],
      "stateMutability": "nonpayable",
      "type": "function"
    },
    {
      "inputs": [
        {
          "internalType": "uint256",
          "name": "amountIn",
          "type": "uint256"
        },
        {
          "internalType": "uint256",
          "name": "amountOut",
          "type": "uint256"
        },
        {
          "internalType": "address[]",
          "name": "poolsPath",
          "type": "address[]"
        },
        {
          "internalType": "address[]",
          "name": "path",
          "type": "address[]"
        },
        {
          "internalType": "address",
          "name": "to",
          "type": "address"
        },
        {
          "internalType": "uint256",
          "name": "swapTimeout",
          "type": "uint256"
        },
        {
          "internalType": "uint160",
          "name": "loopLimit",
          "type": "uint160"
        }
      ],
      "name": "swapExactTokensForTokens",
      "outputs": [
        {
          "internalType": "uint256",
          "name": "",
          "type": "uint256"
        }
      ],
      "stateMutability": "nonpayable",
      "type": "function"
    },
    {
      "inputs": [
        {
          "internalType": "address",
          "name": "newOwner",
          "type": "address"
        }
      ],
      "name": "transferOwnership",
      "outputs": [],
      "stateMutability": "nonpayable",
      "type": "function"
    }
  ],
  "bytecode": {
    "object": "0x608060405234801561001057600080fd5b50610c5b806100206000396000f3fe608060405234801561001057600080fd5b50600436106100625760003560e01c806356792ac01461006757806365b61b771461008d578063715018a6146100b85780638da5cb5b146100c2578063c4d66de8146100d3578063f2fde38b146100e6575b600080fd5b61007a610075366004610a4b565b6100f9565b6040519081526020015b60405180910390f35b6065546100a0906001600160a01b031681565b6040516001600160a01b039091168152602001610084565b6100c061063f565b005b6033546001600160a01b03166100a0565b6100c06100e1366004610948565b6106aa565b6100c06100f4366004610948565b610787565b60008585600081811061011c57634e487b7160e01b600052603260045260246000fd5b90506020020160208101906101319190610948565b6001600160a01b03166323b872dd336040516001600160e01b031960e084901b1681526001600160a01b039091166004820152306024820152604481018d9052606401602060405180830381600087803b15801561018e57600080fd5b505af11580156101a2573d6000803e3d6000fd5b505050506040513d601f19601f820116820180604052508101906101c69190610a2b565b50858560008181106101e857634e487b7160e01b600052603260045260246000fd5b90506020020160208101906101fd9190610948565b60655460405163095ea7b360e01b81526001600160a01b039182166004820152602481018d905291169063095ea7b390604401602060405180830381600087803b15801561024a57600080fd5b505af115801561025e573d6000803e3d6000fd5b505050506040513d601f19601f820116820180604052508101906102829190610a2b565b5060606000878760018181106102a857634e487b7160e01b600052603260045260246000fd5b90506020020160208101906102bd9190610948565b6001600160a01b031614156103df5760408051600280825260608201835290916020830190803683370190505090508686600081811061030d57634e487b7160e01b600052603260045260246000fd5b90506020020160208101906103229190610948565b8160008151811061034357634e487b7160e01b600052603260045260246000fd5b60200260200101906001600160a01b031690816001600160a01b0316815250508686600181811061038457634e487b7160e01b600052603260045260246000fd5b90506020020160208101906103999190610948565b816001815181106103ba57634e487b7160e01b600052603260045260246000fd5b60200260200101906001600160a01b031690816001600160a01b031681525050610566565b6040805160038082526080820190925290602082016060803683370190505090508686600081811061042157634e487b7160e01b600052603260045260246000fd5b90506020020160208101906104369190610948565b8160008151811061045757634e487b7160e01b600052603260045260246000fd5b60200260200101906001600160a01b031690816001600160a01b0316815250508686600181811061049857634e487b7160e01b600052603260045260246000fd5b90506020020160208101906104ad9190610948565b816001815181106104ce57634e487b7160e01b600052603260045260246000fd5b60200260200101906001600160a01b031690816001600160a01b0316815250508686600281811061050f57634e487b7160e01b600052603260045260246000fd5b90506020020160208101906105249190610948565b8160028151811061054557634e487b7160e01b600052603260045260246000fd5b60200260200101906001600160a01b031690816001600160a01b0316815250505b6065546001600160a01b03166338ed17398c8c84896105858a42610bb5565b6040518663ffffffff1660e01b81526004016105a5959493929190610b45565b600060405180830381600087803b1580156105bf57600080fd5b505af11580156105d3573d6000803e3d6000fd5b505050506040513d6000823e601f3d908101601f191682016040526105fb919081019061096b565b600182516106099190610bcd565b8151811061062757634e487b7160e01b600052603260045260246000fd5b60200260200101519150509998505050505050505050565b6033546001600160a01b0316331461069e5760405162461bcd60e51b815260206004820181905260248201527f4f776e61626c653a2063616c6c6572206973206e6f7420746865206f776e657260448201526064015b60405180910390fd5b6106a86000610852565b565b600054610100900460ff166106c55760005460ff16156106c9565b303b155b61072c5760405162461bcd60e51b815260206004820152602e60248201527f496e697469616c697a61626c653a20636f6e747261637420697320616c72656160448201526d191e481a5b9a5d1a585b1a5e995960921b6064820152608401610695565b600054610100900460ff1615801561074e576000805461ffff19166101011790555b6107566108a4565b606580546001600160a01b0319166001600160a01b0384161790558015610783576000805461ff00191690555b5050565b6033546001600160a01b031633146107e15760405162461bcd60e51b815260206004820181905260248201527f4f776e61626c653a2063616c6c6572206973206e6f7420746865206f776e65726044820152606401610695565b6001600160a01b0381166108465760405162461bcd60e51b815260206004820152602660248201527f4f776e61626c653a206e6577206f776e657220697320746865207a65726f206160448201526564647265737360d01b6064820152608401610695565b61084f81610852565b50565b603380546001600160a01b038381166001600160a01b0319831681179093556040519116919082907f8be0079c531659141344cd1fd0a4f28419497f9722a3daafe3b4186f6b6457e090600090a35050565b600054610100900460ff166108cb5760405162461bcd60e51b815260040161069590610afa565b6106a8600054610100900460ff166108f55760405162461bcd60e51b815260040161069590610afa565b6106a833610852565b60008083601f84011261090f578081fd5b50813567ffffffffffffffff811115610926578182fd5b6020830191508360208260051b850101111561094157600080fd5b9250929050565b600060208284031215610959578081fd5b813561096481610c10565b9392505050565b6000602080838503121561097d578182fd5b825167ffffffffffffffff80821115610994578384fd5b818501915085601f8301126109a7578384fd5b8151818111156109b9576109b9610bfa565b8060051b604051601f19603f830116810181811085821117156109de576109de610bfa565b604052828152858101935084860182860187018a10156109fc578788fd5b8795505b83861015610a1e578051855260019590950194938601938601610a00565b5098975050505050505050565b600060208284031215610a3c578081fd5b81518015158114610964578182fd5b600080600080600080600080600060e08a8c031215610a68578485fd5b8935985060208a0135975060408a013567ffffffffffffffff80821115610a8d578687fd5b610a998d838e016108fe565b909950975060608c0135915080821115610ab1578687fd5b50610abe8c828d016108fe565b90965094505060808a0135610ad281610c10565b925060a08a0135915060c08a0135610ae981610c10565b809150509295985092959850929598565b6020808252602b908201527f496e697469616c697a61626c653a20636f6e7472616374206973206e6f74206960408201526a6e697469616c697a696e6760a81b606082015260800190565b600060a082018783526020878185015260a0604085015281875180845260c0860191508289019350845b81811015610b945784516001600160a01b031683529383019391830191600101610b6f565b50506001600160a01b03969096166060850152505050608001529392505050565b60008219821115610bc857610bc8610be4565b500190565b600082821015610bdf57610bdf610be4565b500390565b634e487b7160e01b600052601160045260246000fd5b634e487b7160e01b600052604160045260246000fd5b6001600160a01b038116811461084f57600080fdfea2646970667358221220dd54c3827279a85ac4c881ed758936b1b4f2933501f28192980d893f83660bfe64736f6c63430008040033",
    "linkReferences": {}
  }
}