{
  "abi": [
    {
      "anonymous": false,
      "inputs": [
        {
          "indexed": true,
          "internalType": "address",
          "name": "previousOwner",
          "type": "address"
        },
        {
          "indexed": true,
          "internalType": "address",
          "name": "newOwner",
          "type": "address"
        }
      ],
      "name": "OwnershipTransferred",
      "type": "event"
    },
    {
      "inputs": [],
      "name": "_factory",
      "outputs": [
        {
          "internalType": "contract IDMMFactory",
          "name": "",
          "type": "address"
        }
      ],
      "stateMutability": "view",
      "type": "function"
    },
    {
      "inputs": [],
      "name": "_router",
      "outputs": [
        {
          "internalType": "contract IDMMRouter02",
          "name": "",
          "type": "address"
        }
      ],
      "stateMutability": "view",
      "type": "function"
    },
    {
      "inputs": [
        {
          "internalType": "contract IERC20",
          "name": "_token0",
          "type": "address"
        },
        {
          "internalType": "contract IERC20",
          "name": "_token1",
          "type": "address"
        }
      ],
      "name": "getPools",
      "outputs": [
        {
          "internalType": "address[]",
          "name": "_tokenPools",
          "type": "address[]"
        }
      ],
      "stateMutability": "view",
      "type": "function"
    },
    {
      "inputs": [
        {
          "internalType": "address",
          "name": "poolAddress_",
          "type": "address"
        }
      ],
      "name": "getReserves",
      "outputs": [
        {
          "internalType": "address",
          "name": "_poolAddress",
          "type": "address"
        },
        {
          "internalType": "uint112",
          "name": "reserve0",
          "type": "uint112"
        },
        {
          "internalType": "uint112",
          "name": "reserve1",
          "type": "uint112"
        }
      ],
      "stateMutability": "view",
      "type": "function"
    },
    {
      "inputs": [
        {
          "internalType": "address",
          "name": "_poolAddress",
          "type": "address"
        }
      ],
      "name": "getTradeInfo",
      "outputs": [
        {
          "internalType": "uint112",
          "name": "_vReserve0",
          "type": "uint112"
        },
        {
          "internalType": "uint112",
          "name": "_vReserve1",
          "type": "uint112"
        },
        {
          "internalType": "uint112",
          "name": "reserve0",
          "type": "uint112"
        },
        {
          "internalType": "uint112",
          "name": "reserve1",
          "type": "uint112"
        },
        {
          "internalType": "uint256",
          "name": "feeInPrecision",
          "type": "uint256"
        }
      ],
      "stateMutability": "view",
      "type": "function"
    },
    {
      "inputs": [
        {
          "internalType": "contract IERC20",
          "name": "token0",
          "type": "address"
        },
        {
          "internalType": "contract IERC20",
          "name": "token1",
          "type": "address"
        }
      ],
      "name": "getUnamplifiedPool",
      "outputs": [
        {
          "internalType": "address",
          "name": "",
          "type": "address"
        }
      ],
      "stateMutability": "view",
      "type": "function"
    },
    {
      "inputs": [
        {
          "internalType": "address",
          "name": "router_",
          "type": "address"
        },
        {
          "internalType": "address",
          "name": "_factoryV2",
          "type": "address"
        }
      ],
      "name": "initialize",
      "outputs": [],
      "stateMutability": "nonpayable",
      "type": "function"
    },
    {
      "inputs": [],
      "name": "owner",
      "outputs": [
        {
          "internalType": "address",
          "name": "",
          "type": "address"
        }
      ],
      "stateMutability": "view",
      "type": "function"
    },
    {
      "inputs": [],
      "name": "renounceOwnership",
      "outputs": [],
      "stateMutability": "nonpayable",
      "type": "function"
    },
    {
      "inputs": [
        {
          "internalType": "uint256",
          "name": "amountIn",
          "type": "uint256"
        },
        {
          "internalType": "uint256",
          "name": "amountOutMin",
          "type": "uint256"
        },
        {
          "internalType": "address[]",
          "name": "poolsPath",
          "type": "address[]"
        },
        {
          "internalType": "address[]",
          "name": "path",
          "type": "address[]"
        },
        {
          "internalType": "address",
          "name": "to",
          "type": "address"
        },
        {
          "internalType": "uint256",
          "name": "swapTimeout",
          "type": "uint256"
        },
        {
          "internalType": "uint160",
          "name": "loopLimit",
          "type": "uint160"
        }
      ],
      "name": "swapExactTokensForTokens",
      "outputs": [
        {
          "internalType": "uint256",
          "name": "amounts",
          "type": "uint256"
        }
      ],
      "stateMutability": "nonpayable",
      "type": "function"
    },
    {
      "inputs": [
        {
          "internalType": "address",
          "name": "newOwner",
          "type": "address"
        }
      ],
      "name": "transferOwnership",
      "outputs": [],
      "stateMutability": "nonpayable",
      "type": "function"
    }
  ],
  "bytecode": {
    "object": "0x608060405234801561001057600080fd5b50610f3a806100206000396000f3fe608060405234801561001057600080fd5b50600436106100a95760003560e01c8063715018a611610071578063715018a6146101765780638da5cb5b1461017e578063bec454a91461018f578063c5cc6b6a146101dd578063edae876f146101f0578063f2fde38b1461020357600080fd5b80633d82497e146100ae5780633e99c1e4146100de578063485cc9551461012057806356792ac0146101355780635b1dc86f14610156575b600080fd5b6100c16100bc366004610bbe565b610216565b6040516001600160a01b0390911681526020015b60405180910390f35b6100f16100ec366004610a67565b6102a3565b604080516001600160a01b0390941684526001600160701b0392831660208501529116908201526060016100d5565b61013361012e366004610a9f565b610322565b005b610148610143366004610c5f565b61041a565b6040519081526020016100d5565b610169610164366004610bbe565b610637565b6040516100d59190610d0e565b6101336106c1565b6033546001600160a01b03166100c1565b6101a261019d366004610a67565b610727565b604080516001600160701b0396871681529486166020860152928516928401929092529092166060820152608081019190915260a0016100d5565b6066546100c1906001600160a01b031681565b6065546100c1906001600160a01b031681565b610133610211366004610a67565b6107b2565b606654604051631ec124bf60e11b81526001600160a01b03848116600483015283811660248301526000921690633d82497e9060440160206040518083038186803b15801561026457600080fd5b505afa158015610278573d6000803e3d6000fd5b505050506040513d601f19601f8201168201806040525081019061029c9190610a83565b9392505050565b6000806000836001600160a01b0316630902f1ac6040518163ffffffff1660e01b8152600401604080518083038186803b1580156102e057600080fd5b505afa1580156102f4573d6000803e3d6000fd5b505050506040513d601f19601f820116820180604052508101906103189190610bd0565b9395909450915050565b600054610100900460ff1661033d5760005460ff1615610341565b303b155b6103a95760405162461bcd60e51b815260206004820152602e60248201527f496e697469616c697a61626c653a20636f6e747261637420697320616c72656160448201526d191e481a5b9a5d1a585b1a5e995960921b60648201526084015b60405180910390fd5b600054610100900460ff161580156103cb576000805461ffff19166101011790555b6103d361087d565b606580546001600160a01b038086166001600160a01b03199283161790925560668054928516929091169190911790558015610415576000805461ff00191690555b505050565b60008585600081811061043d57634e487b7160e01b600052603260045260246000fd5b90506020020160208101906104529190610a67565b6001600160a01b03166323b872dd336040516001600160e01b031960e084901b1681526001600160a01b039091166004820152306024820152604481018d9052606401602060405180830381600087803b1580156104af57600080fd5b505af11580156104c3573d6000803e3d6000fd5b505050506040513d601f19601f820116820180604052508101906104e79190610b9e565b508585600081811061050957634e487b7160e01b600052603260045260246000fd5b905060200201602081019061051e9190610a67565b60655460405163095ea7b360e01b81526001600160a01b039182166004820152602481018d905291169063095ea7b390604401602060405180830381600087803b15801561056b57600080fd5b505af115801561057f573d6000803e3d6000fd5b505050506040513d601f19601f820116820180604052508101906105a39190610b9e565b5060006105b18787856108ac565b6065549091506001600160a01b031663e8898b5f8c8c8c8c868b6105d58c42610e84565b6040518863ffffffff1660e01b81526004016105f79796959493929190610da6565b600060405180830381600087803b15801561061157600080fd5b505af1158015610625573d6000803e3d6000fd5b50505050509998505050505050505050565b606654604051635b1dc86f60e01b81526001600160a01b03848116600483015283811660248301526060921690635b1dc86f9060440160006040518083038186803b15801561068557600080fd5b505afa158015610699573d6000803e3d6000fd5b505050506040513d6000823e601f3d908101601f1916820160405261029c9190810190610ad7565b6033546001600160a01b0316331461071b5760405162461bcd60e51b815260206004820181905260248201527f4f776e61626c653a2063616c6c6572206973206e6f7420746865206f776e657260448201526064016103a0565b6107256000610974565b565b6000806000806000856001600160a01b031663d66940276040518163ffffffff1660e01b815260040160a06040518083038186803b15801561076857600080fd5b505afa15801561077c573d6000803e3d6000fd5b505050506040513d601f19601f820116820180604052508101906107a09190610c02565b939a9299509097509550909350915050565b6033546001600160a01b0316331461080c5760405162461bcd60e51b815260206004820181905260248201527f4f776e61626c653a2063616c6c6572206973206e6f7420746865206f776e657260448201526064016103a0565b6001600160a01b0381166108715760405162461bcd60e51b815260206004820152602660248201527f4f776e61626c653a206e6577206f776e657220697320746865207a65726f206160448201526564647265737360d01b60648201526084016103a0565b61087a81610974565b50565b600054610100900460ff166108a45760405162461bcd60e51b81526004016103a090610d5b565b6107256109c6565b606060005b6108bc836001610e59565b6001600160a01b0316816001600160a01b0316101561096c5760008585836001600160a01b031681811061090057634e487b7160e01b600052603260045260246000fd5b90506020020160208101906109159190610a67565b90508083836001600160a01b03168151811061094157634e487b7160e01b600052603260045260246000fd5b6001600160a01b0390921660209283029190910190910152508061096481610e9c565b9150506108b1565b509392505050565b603380546001600160a01b038381166001600160a01b0319831681179093556040519116919082907f8be0079c531659141344cd1fd0a4f28419497f9722a3daafe3b4186f6b6457e090600090a35050565b600054610100900460ff166109ed5760405162461bcd60e51b81526004016103a090610d5b565b61072533610974565b8051610a0181610eef565b919050565b60008083601f840112610a17578081fd5b50813567ffffffffffffffff811115610a2e578182fd5b6020830191508360208260051b8501011115610a4957600080fd5b9250929050565b80516001600160701b0381168114610a0157600080fd5b600060208284031215610a78578081fd5b813561029c81610eef565b600060208284031215610a94578081fd5b815161029c81610eef565b60008060408385031215610ab1578081fd5b8235610abc81610eef565b91506020830135610acc81610eef565b809150509250929050565b60006020808385031215610ae9578182fd5b825167ffffffffffffffff80821115610b00578384fd5b818501915085601f830112610b13578384fd5b815181811115610b2557610b25610ed9565b8060051b604051601f19603f83011681018181108582111715610b4a57610b4a610ed9565b604052828152858101935084860182860187018a1015610b68578788fd5b8795505b83861015610b9157610b7d816109f6565b855260019590950194938601938601610b6c565b5098975050505050505050565b600060208284031215610baf578081fd5b8151801515811461029c578182fd5b60008060408385031215610ab1578182fd5b60008060408385031215610be2578182fd5b610beb83610a50565b9150610bf960208401610a50565b90509250929050565b600080600080600060a08688031215610c19578081fd5b610c2286610a50565b9450610c3060208701610a50565b9350610c3e60408701610a50565b9250610c4c60608701610a50565b9150608086015190509295509295909350565b600080600080600080600080600060e08a8c031215610c7c578384fd5b8935985060208a0135975060408a013567ffffffffffffffff80821115610ca1578586fd5b610cad8d838e01610a06565b909950975060608c0135915080821115610cc5578586fd5b50610cd28c828d01610a06565b90965094505060808a0135610ce681610eef565b925060a08a0135915060c08a0135610cfd81610eef565b809150509295985092959850929598565b6020808252825182820181905260009190848201906040850190845b81811015610d4f5783516001600160a01b031683529284019291840191600101610d2a565b50909695505050505050565b6020808252602b908201527f496e697469616c697a61626c653a20636f6e7472616374206973206e6f74206960408201526a6e697469616c697a696e6760a81b606082015260800190565b878152602080820188905260c0604083018190528201869052600090879060e08401835b89811015610df8578335610ddd81610eef565b6001600160a01b031682529282019290820190600101610dca565b5084810360608601528751808252908201925081880190845b81811015610e365782516001600160a01b031685529383019391830191600101610e11565b505050506001600160a01b039490941660808301525060a0015295945050505050565b60006001600160a01b03828116848216808303821115610e7b57610e7b610ec3565b01949350505050565b60008219821115610e9757610e97610ec3565b500190565b60006001600160a01b0382811680821415610eb957610eb9610ec3565b6001019392505050565b634e487b7160e01b600052601160045260246000fd5b634e487b7160e01b600052604160045260246000fd5b6001600160a01b038116811461087a57600080fdfea2646970667358221220ec3c5787a5245f4e0b4c061d233249fba0a5256c7900f72cf65d0960da4377d264736f6c63430008040033",
    "linkReferences": {}
  }
}